:020000040000FA
:10000000200220206D01000071010000730100003A
:1000100000000000000000000000000000000000E0
:10002000000000000000000000000000750100005A
:1000300000000000000000007701000079010000CE
:100040007B0100007B0100007B0100007B010000C0
:100050007B0100007B0100007B0100007B010000B0
:10006000000000007B0100007B0100000000000098
:10007000000000007B0100007B0100007B0100000C
:100080007B0100007B0100007B0100007B01000080
:100090007B0100007B010000000000000000000068
:1000A0007B0100007B010000000000000000000058
:1000B0007B010000000000007B0100007B010000CC
:1000C00000F002F800F042F812A030C808382418F6
:1000D0002D18AC4201D100F039F80FCCA246AB4646
:1000E0000CA730CF2D1B083F3F197C427F1E544484
:1000F0002D090426F441641EAC4201D300F026F819
:100100000126334200D0FB1A3343984754465D46DC
:10011000DFE70000AC030000BC03000000000000AB
:100120007047000000000000002300240025002686
:10013000103A01D378C1FBD8520700D330C100D5A3
:100140000B6070471FB51FBD10B510BD00F027F83C
:100150001146FFF7F7FF00F0A9F900F03FF803B4EC
:10016000FFF7F2FF03BC00F045F800000648004727
:10017000FEE7FEE7FEE7FEE7FEE7FEE70348044989
:10018000024A044B70470000C100000020012020FB
:1001900020022020200120207047704770477546BC
:1001A00000F024F8AE46050069465346C008C0007A
:1001B000854618B020B5FFF7E1FF60BCB6460026C3
:1001C0000027C0C5C0C5C0C5C0C5C0C5C0C5C0C565
:1001D000C0C5403D490849008D46704710B50446EA
:1001E000C046C0462046FFF7BAFF10BD0048704722
:1001F0000000202001491820ABBEFEE726000200C7
:100200007047811E091F00BFFCD27047F0B53C4A01
:1002100082183C4BC31808794E793B4D3B4C002E5D
:1002200023D0202804D00526F601002803D003E0BF
:10023000374E002800D18826576F2F403743576725
:10024000976F2F4037439767566B26405663966BE0
:10025000264096630026566596658F26F6435F68AE
:1002600037405F609F6837409F608E79096820281B
:100270000BD0002819D1491E5160D76E2F4088211C
:100280000F43D7661746703719E0491E5160D16E8B
:1002900029401F4F3943D166116F294039431167F7
:1002A000012149071B4D174609E049085160D76EE7
:1002B0002F400521C9010F43D766174670373C68A8
:1002C0002C400C433C60D16A104C2140D162116B30
:1002D000214011630021D16411658F21C943D46F7E
:1002E0000C40D4671C680C401C600643BD203040A5
:1002F0001168094B0B40C018801C1060F0BDC0464F
:10030000041800008418000024493E008888FDFF7E
:1003100001040000FFFFFFCF4000FFCF10B507230F
:100320009B04194092008018024A84589C4361182B
:10033000815010BD3018000010B5029CA4000019B7
:1003400011431943014A815010BDC04650180000A6
:1003500092008018014A81507047C0461018000072
:1003600010B50122120383180C789C604B788350DF
:100370008978014A815010BD0C1100000448842185
:100380000160044A0123136041600220106070473D
:1003900004804240D0120A40094800210160032035
:1003A000C04308490A1F13680340136008683022DD
:1003B0009043086008680F22904308607047C04669
:1003C00008030B4004010B40F0B581B01C4C1D49E3
:1003D0002046FFF7C5FF1C492046FFF717FF1B48C3
:1003E00001681B4A0A400260002500952046294604
:1003F0002A462B46FFF7A0FF204629462A46FFF74C
:100400008DFF7D20C600204631462A46FFF7A0FF1B
:1004100001270097204629462A462B46FFF78CFFE6
:10042000204629463A46FFF779FF204631463A46AC
:10043000FFF78EFF074887600321016001B0F0BD20
:1004400000008640B2040000B80400000418864092
:100450007F00FFFF0011864080B500F00DF8FFF728
:100460008DFFFFF799FFFFF7AFFFB820014900228A
:100470000A5480BD6000202080B5074807494160CC
:10048000074A5160074B59600749016011601960C4
:100490001020FFF7B6FE80BD00080A40030000B13F
:1004A00000280A400008864001000026FFF7D4FF1C
:1004B000FEE7080000000000E80300000001000063
:1004C000D0040000000020202002000028010000CD
:04000005000000C136
:00000001FF
